{
  "contractName": "MyNFT",
  "abi": [
    {
      "inputs": [
        {
          "internalType": "string",
          "name": "name",
          "type": "string"
        },
        {
          "internalType": "string",
          "name": "symbol",
          "type": "string"
        }
      ],
      "stateMutability": "nonpayable",
      "type": "constructor"
    },
    {
      "anonymous": false,
      "inputs": [
        {
          "indexed": true,
          "internalType": "address",
          "name": "_owner",
          "type": "address"
        },
        {
          "indexed": true,
          "internalType": "address",
          "name": "_approved",
          "type": "address"
        },
        {
          "indexed": true,
          "internalType": "uint256",
          "name": "_tokenId",
          "type": "uint256"
        }
      ],
      "name": "Approval",
      "type": "event"
    },
    {
      "anonymous": false,
      "inputs": [
        {
          "indexed": true,
          "internalType": "address",
          "name": "_owner",
          "type": "address"
        },
        {
          "indexed": true,
          "internalType": "address",
          "name": "_operator",
          "type": "address"
        },
        {
          "indexed": false,
          "internalType": "bool",
          "name": "_approved",
          "type": "bool"
        }
      ],
      "name": "ApprovalForAll",
      "type": "event"
    },
    {
      "anonymous": false,
      "inputs": [
        {
          "indexed": true,
          "internalType": "address",
          "name": "_from",
          "type": "address"
        },
        {
          "indexed": true,
          "internalType": "address",
          "name": "_to",
          "type": "address"
        },
        {
          "indexed": true,
          "internalType": "uint256",
          "name": "_tokenId",
          "type": "uint256"
        }
      ],
      "name": "Transfer",
      "type": "event"
    },
    {
      "inputs": [
        {
          "internalType": "address",
          "name": "_owner",
          "type": "address"
        }
      ],
      "name": "balanceOf",
      "outputs": [
        {
          "internalType": "uint256",
          "name": "",
          "type": "uint256"
        }
      ],
      "stateMutability": "view",
      "type": "function"
    },
    {
      "inputs": [
        {
          "internalType": "uint256",
          "name": "_tokenId",
          "type": "uint256"
        }
      ],
      "name": "ownerOf",
      "outputs": [
        {
          "internalType": "address",
          "name": "",
          "type": "address"
        }
      ],
      "stateMutability": "view",
      "type": "function"
    },
    {
      "inputs": [
        {
          "internalType": "address",
          "name": "_approved",
          "type": "address"
        },
        {
          "internalType": "uint256",
          "name": "_tokenId",
          "type": "uint256"
        }
      ],
      "name": "approve",
      "outputs": [],
      "stateMutability": "payable",
      "type": "function"
    },
    {
      "inputs": [
        {
          "internalType": "address",
          "name": "_operator",
          "type": "address"
        },
        {
          "internalType": "bool",
          "name": "_approved",
          "type": "bool"
        }
      ],
      "name": "setApprovalForAll",
      "outputs": [],
      "stateMutability": "nonpayable",
      "type": "function"
    },
    {
      "inputs": [
        {
          "internalType": "uint256",
          "name": "_tokenId",
          "type": "uint256"
        }
      ],
      "name": "getApproved",
      "outputs": [
        {
          "internalType": "address",
          "name": "",
          "type": "address"
        }
      ],
      "stateMutability": "view",
      "type": "function"
    },
    {
      "inputs": [
        {
          "internalType": "address",
          "name": "_owner",
          "type": "address"
        },
        {
          "internalType": "address",
          "name": "_operator",
          "type": "address"
        }
      ],
      "name": "isApprovedForAll",
      "outputs": [
        {
          "internalType": "bool",
          "name": "",
          "type": "bool"
        }
      ],
      "stateMutability": "view",
      "type": "function"
    },
    {
      "inputs": [
        {
          "internalType": "address",
          "name": "_from",
          "type": "address"
        },
        {
          "internalType": "address",
          "name": "_to",
          "type": "address"
        },
        {
          "internalType": "uint256",
          "name": "_tokenId",
          "type": "uint256"
        }
      ],
      "name": "safeTransferFrom",
      "outputs": [],
      "stateMutability": "payable",
      "type": "function"
    },
    {
      "inputs": [
        {
          "internalType": "address",
          "name": "_from",
          "type": "address"
        },
        {
          "internalType": "address",
          "name": "_to",
          "type": "address"
        },
        {
          "internalType": "uint256",
          "name": "_tokenId",
          "type": "uint256"
        },
        {
          "internalType": "bytes",
          "name": "_data",
          "type": "bytes"
        }
      ],
      "name": "safeTransferFrom",
      "outputs": [],
      "stateMutability": "payable",
      "type": "function"
    },
    {
      "inputs": [
        {
          "internalType": "address",
          "name": "_from",
          "type": "address"
        },
        {
          "internalType": "address",
          "name": "_to",
          "type": "address"
        },
        {
          "internalType": "uint256",
          "name": "_tokenId",
          "type": "uint256"
        }
      ],
      "name": "transferFrom",
      "outputs": [],
      "stateMutability": "payable",
      "type": "function"
    },
    {
      "inputs": [
        {
          "internalType": "address",
          "name": "to",
          "type": "address"
        },
        {
          "internalType": "uint256",
          "name": "tokenId",
          "type": "uint256"
        }
      ],
      "name": "_mint",
      "outputs": [],
      "stateMutability": "nonpayable",
      "type": "function"
    }
  ],
  "bytecode": "0x60806040523480156200001157600080fd5b506040516200244a3803806200244a833981810160405281019062000037919062000193565b81600490805190602001906200004f92919062000071565b5080600590805190602001906200006892919062000071565b50505062000337565b8280546200007f90620002a3565b90600052602060002090601f016020900481019282620000a35760008555620000ef565b82601f10620000be57805160ff1916838001178555620000ef565b82800160010185558215620000ef579182015b82811115620000ee578251825591602001919060010190620000d1565b5b509050620000fe919062000102565b5090565b5b808211156200011d57600081600090555060010162000103565b5090565b60006200013862000132846200023a565b62000206565b9050828152602081018484840111156200015157600080fd5b6200015e8482856200026d565b509392505050565b600082601f8301126200017857600080fd5b81516200018a84826020860162000121565b91505092915050565b60008060408385031215620001a757600080fd5b600083015167ffffffffffffffff811115620001c257600080fd5b620001d08582860162000166565b925050602083015167ffffffffffffffff811115620001ee57600080fd5b620001fc8582860162000166565b9150509250929050565b6000604051905081810181811067ffffffffffffffff8211171562000230576200022f62000308565b5b8060405250919050565b600067ffffffffffffffff82111562000258576200025762000308565b5b601f19601f8301169050602081019050919050565b60005b838110156200028d57808201518184015260208101905062000270565b838111156200029d576000848401525b50505050565b60006002820490506001821680620002bc57607f821691505b60208210811415620002d357620002d2620002d9565b5b50919050565b7f4e487b7100000000000000000000000000000000000000000000000000000000600052602260045260246000fd5b7f4e487b7100000000000000000000000000000000000000000000000000000000600052604160045260246000fd5b61210380620003476000396000f3fe6080604052600436106100915760003560e01c80636352211e116100595780636352211e1461015057806370a082311461018d578063a22cb465146101ca578063b88d4fde146101f3578063e985e9c51461020f57610091565b8063081812fc14610096578063095ea7b3146100d357806323b872dd146100ef57806342842e0e1461010b5780634e6ec24714610127575b600080fd5b3480156100a257600080fd5b506100bd60048036038101906100b89190611906565b61024c565b6040516100ca9190611d26565b60405180910390f35b6100ed60048036038101906100e891906118ca565b610289565b005b610109600480360381019061010491906117c4565b6104f0565b005b610125600480360381019061012091906117c4565b610960565b005b34801561013357600080fd5b5061014e600480360381019061014991906118ca565b610c2f565b005b34801561015c57600080fd5b5061017760048036038101906101729190611906565b610f27565b6040516101849190611d26565b60405180910390f35b34801561019957600080fd5b506101b460048036038101906101af919061175f565b610f63565b6040516101c19190611ebc565b60405180910390f35b3480156101d657600080fd5b506101f160048036038101906101ec919061188e565b61101b565b005b61020d60048036038101906102089190611813565b611187565b005b34801561021b57600080fd5b5061023660048036038101906102319190611788565b6115f8565b6040516102439190611d41565b60405180910390f35b60006002600083815260200190815260200160002060009054906101000a900473ffffffffffffffffffffffffffffffffffffffff169050919050565b600080600083815260200190815260200160002060009054906101000a900473ffffffffffffffffffffffffffffffffffffffff169050600060019050600073ffffffffffffffffffffffffffffffffffffffff168473ffffffffffffffffffffffffffffffffffffffff161415610336576040517f08c379a000000000000000000000000000000000000000000000000000000000815260040161032d90611ddc565b60405180910390fd5b8173ffffffffffffffffffffffffffffffffffffffff163373ffffffffffffffffffffffffffffffffffffffff161415806103fe5750600360008373ffffffffffffffffffffffffffffffffffffffff1673ffffffffffffffffffffffffffffffffffffffff16815260200190815260200160002060003373ffffffffffffffffffffffffffffffffffffffff1673ffffffffffffffffffffffffffffffffffffffff16815260200190815260200160002060009054906101000a900460ff16151581151514155b61043d576040517f08c379a000000000000000000000000000000000000000000000000000000000815260040161043490611e3c565b60405180910390fd5b836002600085815260200190815260200160002060006101000a81548173ffffffffffffffffffffffffffffffffffffffff021916908373ffffffffffffffffffffffffffffffffffffffff160217905550828473ffffffffffffffffffffffffffffffffffffffff168373ffffffffffffffffffffffffffffffffffffffff167f8c5be1e5ebec7d5bd14f71427d1e84f3dd0314c0f7b2291e5b200ac8c7c3b92560405160405180910390a450505050565b600073ffffffffffffffffffffffffffffffffffffffff1660008083815260200190815260200160002060009054906101000a900473ffffffffffffffffffffffffffffffffffffffff1673ffffffffffffffffffffffffffffffffffffffff161415610592576040517f08c379a000000000000000000000000000000000000000000000000000000000815260040161058990611e5c565b60405180910390fd5b60011515600360003373ffffffffffffffffffffffffffffffffffffffff1673ffffffffffffffffffffffffffffffffffffffff16815260200190815260200160002060008573ffffffffffffffffffffffffffffffffffffffff1673ffffffffffffffffffffffffffffffffffffffff16815260200190815260200160002060009054906101000a900460ff161515148061068c57506002600082815260200190815260200160002060009054906101000a900473ffffffffffffffffffffffffffffffffffffffff1673ffffffffffffffffffffffffffffffffffffffff163373ffffffffffffffffffffffffffffffffffffffff16145b806106f4575060008082815260200190815260200160002060009054906101000a900473ffffffffffffffffffffffffffffffffffffffff1673ffffffffffffffffffffffffffffffffffffffff163373ffffffffffffffffffffffffffffffffffffffff16145b610733576040517f08c379a000000000000000000000000000000000000000000000000000000000815260040161072a90611e7c565b60405180910390fd5b600080600083815260200190815260200160002060006101000a81548173ffffffffffffffffffffffffffffffffffffffff021916908373ffffffffffffffffffffffffffffffffffffffff1602179055506107d760018060008673ffffffffffffffffffffffffffffffffffffffff1673ffffffffffffffffffffffffffffffffffffffff1681526020019081526020016000205461168c90919063ffffffff16565b600160008573ffffffffffffffffffffffffffffffffffffffff1673ffffffffffffffffffffffffffffffffffffffff1681526020019081526020016000208190555061086c60018060008573ffffffffffffffffffffffffffffffffffffffff1673ffffffffffffffffffffffffffffffffffffffff168152602001908152602001600020546116a290919063ffffffff16565b600160008473ffffffffffffffffffffffffffffffffffffffff1673ffffffffffffffffffffffffffffffffffffffff168152602001908152602001600020819055508160008083815260200190815260200160002060006101000a81548173ffffffffffffffffffffffffffffffffffffffff021916908373ffffffffffffffffffffffffffffffffffffffff160217905550808273ffffffffffffffffffffffffffffffffffffffff168473ffffffffffffffffffffffffffffffffffffffff167fddf252ad1be2c89b69c2b068fc378daa952ba7f163c4a11628f55a4df523b3ef60405160405180910390a4505050565b600073ffffffffffffffffffffffffffffffffffffffff1660008083815260200190815260200160002060009054906101000a900473ffffffffffffffffffffffffffffffffffffffff1673ffffffffffffffffffffffffffffffffffffffff161415610a02576040517f08c379a00000000000000000000000000000000000000000000000000000000081526004016109f990611d9c565b60405180910390fd5b600080600083815260200190815260200160002060006101000a81548173ffffffffffffffffffffffffffffffffffffffff021916908373ffffffffffffffffffffffffffffffffffffffff160217905550610aa660018060008673ffffffffffffffffffffffffffffffffffffffff1673ffffffffffffffffffffffffffffffffffffffff1681526020019081526020016000205461168c90919063ffffffff16565b600160008573ffffffffffffffffffffffffffffffffffffffff1673ffffffffffffffffffffffffffffffffffffffff16815260200190815260200160002081905550610b3b60018060008573ffffffffffffffffffffffffffffffffffffffff1673ffffffffffffffffffffffffffffffffffffffff168152602001908152602001600020546116a290919063ffffffff16565b600160008473ffffffffffffffffffffffffffffffffffffffff1673ffffffffffffffffffffffffffffffffffffffff168152602001908152602001600020819055508160008083815260200190815260200160002060006101000a81548173ffffffffffffffffffffffffffffffffffffffff021916908373ffffffffffffffffffffffffffffffffffffffff160217905550808273ffffffffffffffffffffffffffffffffffffffff168473ffffffffffffffffffffffffffffffffffffffff167fddf252ad1be2c89b69c2b068fc378daa952ba7f163c4a11628f55a4df523b3ef60405160405180910390a4505050565b600073ffffffffffffffffffffffffffffffffffffffff1660008083815260200190815260200160002060009054906101000a900473ffffffffffffffffffffffffffffffffffffffff1673ffffffffffffffffffffffffffffffffffffffff1614610cd0576040517f08c379a0000000000000000000000000000000000000000000000000000000008152600401610cc790611dbc565b60405180910390fd5b600073ffffffffffffffffffffffffffffffffffffffff168273ffffffffffffffffffffffffffffffffffffffff161415610d40576040517f08c379a0000000000000000000000000000000000000000000000000000000008152600401610d3790611e1c565b60405180910390fd5b600073ffffffffffffffffffffffffffffffffffffffff1660008083815260200190815260200160002060009054906101000a900473ffffffffffffffffffffffffffffffffffffffff1673ffffffffffffffffffffffffffffffffffffffff1614610de1576040517f08c379a0000000000000000000000000000000000000000000000000000000008152600401610dd890611d7c565b60405180910390fd5b8160008083815260200190815260200160002060006101000a81548173ffffffffffffffffffffffffffffffffffffffff021916908373ffffffffffffffffffffffffffffffffffffffff160217905550610e8460018060008573ffffffffffffffffffffffffffffffffffffffff1673ffffffffffffffffffffffffffffffffffffffff168152602001908152602001600020546116a290919063ffffffff16565b600160008473ffffffffffffffffffffffffffffffffffffffff1673ffffffffffffffffffffffffffffffffffffffff16815260200190815260200160002081905550808273ffffffffffffffffffffffffffffffffffffffff16600073ffffffffffffffffffffffffffffffffffffffff167fddf252ad1be2c89b69c2b068fc378daa952ba7f163c4a11628f55a4df523b3ef60405160405180910390a45050565b600080600083815260200190815260200160002060009054906101000a900473ffffffffffffffffffffffffffffffffffffffff169050919050565b60008073ffffffffffffffffffffffffffffffffffffffff168273ffffffffffffffffffffffffffffffffffffffff161415610fd4576040517f08c379a0000000000000000000000000000000000000000000000000000000008152600401610fcb90611e9c565b60405180910390fd5b600160008373ffffffffffffffffffffffffffffffffffffffff1673ffffffffffffffffffffffffffffffffffffffff168152602001908152602001600020549050919050565b3373ffffffffffffffffffffffffffffffffffffffff168273ffffffffffffffffffffffffffffffffffffffff16141561108a576040517f08c379a000000000000000000000000000000000000000000000000000000000815260040161108190611dfc565b60405180910390fd5b80600360003373ffffffffffffffffffffffffffffffffffffffff1673ffffffffffffffffffffffffffffffffffffffff16815260200190815260200160002060008473ffffffffffffffffffffffffffffffffffffffff1673ffffffffffffffffffffffffffffffffffffffff16815260200190815260200160002060006101000a81548160ff0219169083151502179055508173ffffffffffffffffffffffffffffffffffffffff163373ffffffffffffffffffffffffffffffffffffffff167f17307eab39ab6107e8899845ad3d59bd9653f200f220920489ca2b5937696c318360405161117b9190611d41565b60405180910390a35050565b600073ffffffffffffffffffffffffffffffffffffffff1660008084815260200190815260200160002060009054906101000a900473ffffffffffffffffffffffffffffffffffffffff1673ffffffffffffffffffffffffffffffffffffffff161415611229576040517f08c379a000000000000000000000000000000000000000000000000000000000815260040161122090611d9c565b60405180910390fd5b60011515600360003373ffffffffffffffffffffffffffffffffffffffff1673ffffffffffffffffffffffffffffffffffffffff16815260200190815260200160002060008673ffffffffffffffffffffffffffffffffffffffff1673ffffffffffffffffffffffffffffffffffffffff16815260200190815260200160002060009054906101000a900460ff161515148061132357506002600083815260200190815260200160002060009054906101000a900473ffffffffffffffffffffffffffffffffffffffff1673ffffffffffffffffffffffffffffffffffffffff163373ffffffffffffffffffffffffffffffffffffffff16145b8061138b575060008083815260200190815260200160002060009054906101000a900473ffffffffffffffffffffffffffffffffffffffff1673ffffffffffffffffffffffffffffffffffffffff163373ffffffffffffffffffffffffffffffffffffffff16145b6113ca576040517f08c379a00000000000000000000000000000000000000000000000000000000081526004016113c190611d5c565b60405180910390fd5b600080600084815260200190815260200160002060006101000a81548173ffffffffffffffffffffffffffffffffffffffff021916908373ffffffffffffffffffffffffffffffffffffffff16021790555061146e60018060008773ffffffffffffffffffffffffffffffffffffffff1673ffffffffffffffffffffffffffffffffffffffff1681526020019081526020016000205461168c90919063ffffffff16565b600160008673ffffffffffffffffffffffffffffffffffffffff1673ffffffffffffffffffffffffffffffffffffffff1681526020019081526020016000208190555061150360018060008673ffffffffffffffffffffffffffffffffffffffff1673ffffffffffffffffffffffffffffffffffffffff168152602001908152602001600020546116a290919063ffffffff16565b600160008573ffffffffffffffffffffffffffffffffffffffff1673ffffffffffffffffffffffffffffffffffffffff168152602001908152602001600020819055508260008084815260200190815260200160002060006101000a81548173ffffffffffffffffffffffffffffffffffffffff021916908373ffffffffffffffffffffffffffffffffffffffff160217905550818373ffffffffffffffffffffffffffffffffffffffff168573ffffffffffffffffffffffffffffffffffffffff167fddf252ad1be2c89b69c2b068fc378daa952ba7f163c4a11628f55a4df523b3ef60405160405180910390a450505050565b6000600360008473ffffffffffffffffffffffffffffffffffffffff1673ffffffffffffffffffffffffffffffffffffffff16815260200190815260200160002060008373ffffffffffffffffffffffffffffffffffffffff1673ffffffffffffffffffffffffffffffffffffffff16815260200190815260200160002060009054906101000a900460ff16905092915050565b6000818361169a9190611f9f565b905092915050565b600081836116b09190611f49565b905092915050565b60006116cb6116c684611f08565b611ed7565b9050828152602081018484840111156116e357600080fd5b6116ee84828561201b565b509392505050565b60008135905061170581612088565b92915050565b60008135905061171a8161209f565b92915050565b600082601f83011261173157600080fd5b81356117418482602086016116b8565b91505092915050565b600081359050611759816120b6565b92915050565b60006020828403121561177157600080fd5b600061177f848285016116f6565b91505092915050565b6000806040838503121561179b57600080fd5b60006117a9858286016116f6565b92505060206117ba858286016116f6565b9150509250929050565b6000806000606084860312156117d957600080fd5b60006117e7868287016116f6565b93505060206117f8868287016116f6565b92505060406118098682870161174a565b9150509250925092565b6000806000806080858703121561182957600080fd5b6000611837878288016116f6565b9450506020611848878288016116f6565b93505060406118598782880161174a565b925050606085013567ffffffffffffffff81111561187657600080fd5b61188287828801611720565b91505092959194509250565b600080604083850312156118a157600080fd5b60006118af858286016116f6565b92505060206118c08582860161170b565b9150509250929050565b600080604083850312156118dd57600080fd5b60006118eb858286016116f6565b92505060206118fc8582860161174a565b9150509250929050565b60006020828403121561191857600080fd5b60006119268482850161174a565b91505092915050565b61193881611fd3565b82525050565b61194781611fe5565b82525050565b600061195a604083611f38565b91507f4d794e46543a736166655472616e7366657246726f6d207472616e736665722060008301527f63616c6c6572206973206e6f74206f776e6572206e6f7220617070726f7665646020830152604082019050919050565b60006119c0601b83611f38565b91507f4d794e46543a6d696e7420416c7265616479206578697374732e2e00000000006000830152602082019050919050565b6000611a00602883611f38565b91507f4d794e46543a736166655472616e7366657246726f6d204e6f7420612056616c60008301527f696420546f6b656e0000000000000000000000000000000000000000000000006020830152604082019050919050565b6000611a66601c83611f38565b91507f4d794e46543a6d696e74204e6f7420612056616c696420546f6b656e000000006000830152602082019050919050565b6000611aa6602883611f38565b91507f4d794e46543a617070726f766520496e76616c696420417070726f76616c204160008301527f64647265737320210000000000000000000000000000000000000000000000006020830152604082019050919050565b6000611b0c603d83611f38565b91507f204d794e46543a736574417070726f76616c466f72416c6c206d73672e73656e60008301527f646572206973207468652063757272656e74204e4654206f776e6572200000006020830152604082019050919050565b6000611b72601a83611f38565b91507f4d794e46543a6d696e7420496e76616c696420416464726573730000000000006000830152602082019050919050565b6000611bb2603283611f38565b91507f6d73672e73656e646572206973207468652063757272656e74204e4654206f7760008301527f6e657220206f72206f70657261746f72202100000000000000000000000000006020830152604082019050919050565b6000611c18602483611f38565b91507f4d794e46543a7472616e7366657246726f6d204e6f7420612056616c6964205460008301527f6f6b656e000000000000000000000000000000000000000000000000000000006020830152604082019050919050565b6000611c7e603383611f38565b91507f4d794e46543a7472616e7366657246726f6d2063616c6c6572206973206e6f7460008301527f206f776e6572206e6f7220617070726f766564000000000000000000000000006020830152604082019050919050565b6000611ce4601f83611f38565b91507f4d794e46543a62616c616e63654f6620496e76616c69642061646472657373006000830152602082019050919050565b611d2081612011565b82525050565b6000602082019050611d3b600083018461192f565b92915050565b6000602082019050611d56600083018461193e565b92915050565b60006020820190508181036000830152611d758161194d565b9050919050565b60006020820190508181036000830152611d95816119b3565b9050919050565b60006020820190508181036000830152611db5816119f3565b9050919050565b60006020820190508181036000830152611dd581611a59565b9050919050565b60006020820190508181036000830152611df581611a99565b9050919050565b60006020820190508181036000830152611e1581611aff565b9050919050565b60006020820190508181036000830152611e3581611b65565b9050919050565b60006020820190508181036000830152611e5581611ba5565b9050919050565b60006020820190508181036000830152611e7581611c0b565b9050919050565b60006020820190508181036000830152611e9581611c71565b9050919050565b60006020820190508181036000830152611eb581611cd7565b9050919050565b6000602082019050611ed16000830184611d17565b92915050565b6000604051905081810181811067ffffffffffffffff82111715611efe57611efd612059565b5b8060405250919050565b600067ffffffffffffffff821115611f2357611f22612059565b5b601f19601f8301169050602081019050919050565b600082825260208201905092915050565b6000611f5482612011565b9150611f5f83612011565b9250827fffffffffffffffffffffffffffffffffffffffffffffffffffffffffffffffff03821115611f9457611f9361202a565b5b828201905092915050565b6000611faa82612011565b9150611fb583612011565b925082821015611fc857611fc761202a565b5b828203905092915050565b6000611fde82611ff1565b9050919050565b60008115159050919050565b600073ffffffffffffffffffffffffffffffffffffffff82169050919050565b6000819050919050565b82818337600083830152505050565b7f4e487b7100000000000000000000000000000000000000000000000000000000600052601160045260246000fd5b7f4e487b7100000000000000000000000000000000000000000000000000000000600052604160045260246000fd5b61209181611fd3565b811461209c57600080fd5b50565b6120a881611fe5565b81146120b357600080fd5b50565b6120bf81612011565b81146120ca57600080fd5b5056fea26469706673582212205ae861e11f3815f77dea48e1dcd3ca57182ff56d98d035bd09ecb057b392c0b764736f6c63430008000033",
  "immutableReferences": {},
  "source": "\n// SPDX-License-Identifier: MIT\n\nimport './IERC721.sol';\nimport './SafeMath.sol';\n\npragma solidity >=0.4.22 <0.9.0;\n\ncontract MyNFT is IERC721{\n\n    using SafeMath for uint256;\n\n    struct Alltoken{\n        uint256 id;\n        string name;\n        string uri;\n\n    }    \n  //  mapping (address => Alltoken[]) internal ownedTokens;\n    mapping (uint256 => address) internal tokenOwner;\n    mapping (address => uint256) internal ownedTokensCount;\n    mapping (uint256 => address) internal _tokenapprove;\n    mapping (address => mapping (address => bool)) private _operatorApprovals;\n\n\n    string private _name;\n    string private _symbol;\n\n    constructor(string memory name, string memory symbol) {\n        _name=name;\n        _symbol=symbol;\n    }\n\n\n    function balanceOf(address _owner) external virtual override view returns(uint256){\n        require(_owner!=address(0),\"MyNFT:balanceOf Invalid address\");\n        return ownedTokensCount[_owner];\n    }\n    function ownerOf(uint256 _tokenId) external virtual override view returns(address){\n        return tokenOwner[_tokenId];\n    }\n    function approve(address _approved, uint _tokenId) external virtual override payable {\n        address owner = tokenOwner[_tokenId];\n        bool check=true;\n        require(_approved!=address(0),\"MyNFT:approve Invalid Approval Address !\");\n        require(msg.sender!=owner || check != _operatorApprovals[owner][msg.sender],\"msg.sender is the current NFT owner  or operator !\");\n        _tokenapprove[_tokenId]=_approved;\n        emit Approval(owner, _approved, _tokenId);\n    }\n    function setApprovalForAll(address _operator, bool _approved) external virtual override{\n        require(_operator!=msg.sender, \" MyNFT:setApprovalForAll msg.sender is the current NFT owner \");\n        _operatorApprovals[msg.sender][_operator]=_approved;\n        emit ApprovalForAll(msg.sender, _operator, _approved);\n    }\n    function getApproved(uint256 _tokenId) external virtual override view returns (address){\n        return _tokenapprove[_tokenId];\n    }\n    function isApprovedForAll(address _owner, address _operator) external override view returns (bool){\n        return _operatorApprovals[_owner][_operator];\n    }        \n    function safeTransferFrom(address _from,address _to, uint256 _tokenId, bytes memory _data) external virtual override payable {\n         require(tokenOwner[_tokenId]!=address(0),\"MyNFT:safeTransferFrom Not a Valid Token\");\n        require( _operatorApprovals[msg.sender][_from]==true || \n        msg.sender == _tokenapprove[_tokenId] || \n        msg.sender == tokenOwner[_tokenId],\n        \"MyNFT:safeTransferFrom transfer caller is not owner nor approved\");\n\n        tokenOwner[_tokenId]=address(0);\n        ownedTokensCount[_from]=ownedTokensCount[_from].sub(1);\n        ownedTokensCount[_to]= ownedTokensCount[_to].add(1);\n        tokenOwner[_tokenId]=_to;\n        emit Transfer(_from, _to, _tokenId);\n     \n    }\n\n        function safeTransferFrom(address _from, address _to, uint256 _tokenId) external virtual override payable{\n        require(tokenOwner[_tokenId]!=address(0),\"MyNFT:safeTransferFrom Not a Valid Token\");\n        // require( _operatorApprovals[msg.sender][_from]==true || \n        // msg.sender == _tokenapprove[_tokenId] || \n        // msg.sender == tokenOwner[_tokenId],\n        // \"MyNFT:safeTransferFrom transfer caller is not owner nor approved\");\n\n        tokenOwner[_tokenId]=address(0);\n        ownedTokensCount[_from]=ownedTokensCount[_from].sub(1);\n        ownedTokensCount[_to]= ownedTokensCount[_to].add(1);\n        tokenOwner[_tokenId]=_to;\n        emit Transfer(_from, _to, _tokenId);\n        }\n\n        function transferFrom(address _from, address _to, uint256 _tokenId) external virtual override payable{\n        require(tokenOwner[_tokenId]!=address(0),\"MyNFT:transferFrom Not a Valid Token\");\n        require( _operatorApprovals[msg.sender][_from]==true || \n        msg.sender == _tokenapprove[_tokenId] || \n        msg.sender == tokenOwner[_tokenId],\n        \"MyNFT:transferFrom caller is not owner nor approved\");\n\n        tokenOwner[_tokenId]=address(0);\n        ownedTokensCount[_from]=ownedTokensCount[_from].sub(1);\n        ownedTokensCount[_to]= ownedTokensCount[_to].add(1);\n        tokenOwner[_tokenId]=_to;\n        emit Transfer(_from, _to, _tokenId);\n        }\n\n\n    function _mint(address to, uint256 tokenId) external {\n        require(tokenOwner[tokenId]==address(0),\"MyNFT:mint Not a Valid Token\");\n        require(to!=address(0), \"MyNFT:mint Invalid Address\");\n        require(tokenOwner[tokenId]==address(0),\"MyNFT:mint Already exists..\");\n        tokenOwner[tokenId]=to;\n        ownedTokensCount[to]=ownedTokensCount[to].add(1);\n        emit Transfer(address(0), to, tokenId);\n    }\n    \n}\n\n  \n",
  "sourcePath": "/home/farhan_ali/Desktop/MyNFT/contracts/MyNFT.sol",
  "compiler": {
    "name": "solc",
    "version": "0.8.0+commit.c7dfd78e.Emscripten.clang"
  },
  "schemaVersion": "3.3.4",
  "updatedAt": "2021-02-22T16:26:42.450Z",
  "devdoc": {
    "kind": "dev",
    "methods": {
      "approve(address,uint256)": {
        "details": "The zero address indicates there is no approved address.  Throws unless `msg.sender` is the current NFT owner, or an authorized  operator of the current owner.",
        "params": {
          "_approved": "The new approved NFT controller",
          "_tokenId": "The NFT to approve"
        }
      },
      "balanceOf(address)": {
        "details": "NFTs assigned to the zero address are considered invalid, and this  function throws for queries about the zero address.",
        "params": {
          "_owner": "An address for whom to query the balance"
        },
        "returns": {
          "_0": "The number of NFTs owned by `_owner`, possibly zero"
        }
      },
      "getApproved(uint256)": {
        "details": "Throws if `_tokenId` is not a valid NFT.",
        "params": {
          "_tokenId": "The NFT to find the approved address for"
        },
        "returns": {
          "_0": "The approved address for this NFT, or the zero address if there is none"
        }
      },
      "isApprovedForAll(address,address)": {
        "params": {
          "_operator": "The address that acts on behalf of the owner",
          "_owner": "The address that owns the NFTs"
        },
        "returns": {
          "_0": "True if `_operator` is an approved operator for `_owner`, false otherwise"
        }
      },
      "ownerOf(uint256)": {
        "details": "NFTs assigned to zero address are considered invalid, and queries  about them do throw.",
        "params": {
          "_tokenId": "The identifier for an NFT"
        },
        "returns": {
          "_0": "The address of the owner of the NFT"
        }
      },
      "safeTransferFrom(address,address,uint256)": {
        "details": "This works identically to the other function with an extra data parameter,  except this function just sets data to \"\".",
        "params": {
          "_from": "The current owner of the NFT",
          "_to": "The new owner",
          "_tokenId": "The NFT to transfer"
        }
      },
      "setApprovalForAll(address,bool)": {
        "details": "Emits the ApprovalForAll event. The contract MUST allow  multiple operators per owner.",
        "params": {
          "_approved": "True if the operator is approved, false to revoke approval",
          "_operator": "Address to add to the set of authorized operators"
        }
      },
      "transferFrom(address,address,uint256)": {
        "details": "Throws unless `msg.sender` is the current owner, an authorized  operator, or the approved address for this NFT. Throws if `_from` is  not the current owner. Throws if `_to` is the zero address. Throws if  `_tokenId` is not a valid NFT.",
        "params": {
          "_from": "The current owner of the NFT",
          "_to": "The new owner",
          "_tokenId": "The NFT to transfer"
        }
      }
    },
    "version": 1
  },
  "userdoc": {
    "kind": "user",
    "methods": {
      "approve(address,uint256)": {
        "notice": "Change or reaffirm the approved address for an NFT"
      },
      "balanceOf(address)": {
        "notice": "Count all NFTs assigned to an owner"
      },
      "getApproved(uint256)": {
        "notice": "Get the approved address for a single NFT"
      },
      "isApprovedForAll(address,address)": {
        "notice": "Query if an address is an authorized operator for another address"
      },
      "ownerOf(uint256)": {
        "notice": "Find the owner of an NFT"
      },
      "safeTransferFrom(address,address,uint256)": {
        "notice": "Transfers the ownership of an NFT from one address to another address"
      },
      "setApprovalForAll(address,bool)": {
        "notice": "Enable or disable approval for a third party (\"operator\") to manage  all of `msg.sender`'s assets"
      },
      "transferFrom(address,address,uint256)": {
        "notice": "Transfer ownership of an NFT -- THE CALLER IS RESPONSIBLE  TO CONFIRM THAT `_to` IS CAPABLE OF RECEIVING NFTS OR ELSE  THEY MAY BE PERMANENTLY LOST"
      }
    },
    "version": 1
  }
}