{
  "contractName": "MyNFT",
  "abi": [
    {
      "inputs": [
        {
          "internalType": "string",
          "name": "name",
          "type": "string"
        },
        {
          "internalType": "string",
          "name": "symbol",
          "type": "string"
        }
      ],
      "stateMutability": "nonpayable",
      "type": "constructor"
    },
    {
      "anonymous": false,
      "inputs": [
        {
          "indexed": true,
          "internalType": "address",
          "name": "_owner",
          "type": "address"
        },
        {
          "indexed": true,
          "internalType": "address",
          "name": "_approved",
          "type": "address"
        },
        {
          "indexed": true,
          "internalType": "uint256",
          "name": "_tokenId",
          "type": "uint256"
        }
      ],
      "name": "Approval",
      "type": "event"
    },
    {
      "anonymous": false,
      "inputs": [
        {
          "indexed": true,
          "internalType": "address",
          "name": "_owner",
          "type": "address"
        },
        {
          "indexed": true,
          "internalType": "address",
          "name": "_operator",
          "type": "address"
        },
        {
          "indexed": false,
          "internalType": "bool",
          "name": "_approved",
          "type": "bool"
        }
      ],
      "name": "ApprovalForAll",
      "type": "event"
    },
    {
      "anonymous": false,
      "inputs": [
        {
          "indexed": true,
          "internalType": "address",
          "name": "_from",
          "type": "address"
        },
        {
          "indexed": true,
          "internalType": "address",
          "name": "_to",
          "type": "address"
        },
        {
          "indexed": true,
          "internalType": "uint256",
          "name": "_tokenId",
          "type": "uint256"
        }
      ],
      "name": "Transfer",
      "type": "event"
    },
    {
      "inputs": [
        {
          "internalType": "address",
          "name": "_owner",
          "type": "address"
        }
      ],
      "name": "balanceOf",
      "outputs": [
        {
          "internalType": "uint256",
          "name": "",
          "type": "uint256"
        }
      ],
      "stateMutability": "view",
      "type": "function",
      "constant": true
    },
    {
      "inputs": [
        {
          "internalType": "uint256",
          "name": "_tokenId",
          "type": "uint256"
        }
      ],
      "name": "ownerOf",
      "outputs": [
        {
          "internalType": "address",
          "name": "",
          "type": "address"
        }
      ],
      "stateMutability": "view",
      "type": "function",
      "constant": true
    },
    {
      "inputs": [
        {
          "internalType": "address",
          "name": "_approved",
          "type": "address"
        },
        {
          "internalType": "uint256",
          "name": "_tokenId",
          "type": "uint256"
        }
      ],
      "name": "approve",
      "outputs": [],
      "stateMutability": "payable",
      "type": "function",
      "payable": true
    },
    {
      "inputs": [
        {
          "internalType": "address",
          "name": "_operator",
          "type": "address"
        },
        {
          "internalType": "bool",
          "name": "_approved",
          "type": "bool"
        }
      ],
      "name": "setApprovalForAll",
      "outputs": [],
      "stateMutability": "nonpayable",
      "type": "function"
    },
    {
      "inputs": [
        {
          "internalType": "uint256",
          "name": "_tokenId",
          "type": "uint256"
        }
      ],
      "name": "getApproved",
      "outputs": [
        {
          "internalType": "address",
          "name": "",
          "type": "address"
        }
      ],
      "stateMutability": "view",
      "type": "function",
      "constant": true
    },
    {
      "inputs": [
        {
          "internalType": "address",
          "name": "_owner",
          "type": "address"
        },
        {
          "internalType": "address",
          "name": "_operator",
          "type": "address"
        }
      ],
      "name": "isApprovedForAll",
      "outputs": [
        {
          "internalType": "bool",
          "name": "",
          "type": "bool"
        }
      ],
      "stateMutability": "view",
      "type": "function",
      "constant": true
    },
    {
      "inputs": [
        {
          "internalType": "address",
          "name": "_from",
          "type": "address"
        },
        {
          "internalType": "address",
          "name": "_to",
          "type": "address"
        },
        {
          "internalType": "uint256",
          "name": "_tokenId",
          "type": "uint256"
        }
      ],
      "name": "safeTransferFrom",
      "outputs": [],
      "stateMutability": "payable",
      "type": "function",
      "payable": true
    },
    {
      "inputs": [
        {
          "internalType": "address",
          "name": "_from",
          "type": "address"
        },
        {
          "internalType": "address",
          "name": "_to",
          "type": "address"
        },
        {
          "internalType": "uint256",
          "name": "_tokenId",
          "type": "uint256"
        },
        {
          "internalType": "bytes",
          "name": "_data",
          "type": "bytes"
        }
      ],
      "name": "safeTransferFrom",
      "outputs": [],
      "stateMutability": "payable",
      "type": "function",
      "payable": true
    },
    {
      "inputs": [
        {
          "internalType": "address",
          "name": "_from",
          "type": "address"
        },
        {
          "internalType": "address",
          "name": "_to",
          "type": "address"
        },
        {
          "internalType": "uint256",
          "name": "_tokenId",
          "type": "uint256"
        }
      ],
      "name": "transferFrom",
      "outputs": [],
      "stateMutability": "payable",
      "type": "function",
      "payable": true
    },
    {
      "inputs": [
        {
          "internalType": "address",
          "name": "to",
          "type": "address"
        },
        {
          "internalType": "uint256",
          "name": "tokenId",
          "type": "uint256"
        }
      ],
      "name": "_mint",
      "outputs": [],
      "stateMutability": "nonpayable",
      "type": "function"
    }
  ],
  "bytecode": "0x60806040523480156200001157600080fd5b506040516200214e3803806200214e833981810160405281019062000037919062000193565b81600490805190602001906200004f92919062000071565b5080600590805190602001906200006892919062000071565b50505062000337565b8280546200007f90620002a3565b90600052602060002090601f016020900481019282620000a35760008555620000ef565b82601f10620000be57805160ff1916838001178555620000ef565b82800160010185558215620000ef579182015b82811115620000ee578251825591602001919060010190620000d1565b5b509050620000fe919062000102565b5090565b5b808211156200011d57600081600090555060010162000103565b5090565b60006200013862000132846200023a565b62000206565b9050828152602081018484840111156200015157600080fd5b6200015e8482856200026d565b509392505050565b600082601f8301126200017857600080fd5b81516200018a84826020860162000121565b91505092915050565b60008060408385031215620001a757600080fd5b600083015167ffffffffffffffff811115620001c257600080fd5b620001d08582860162000166565b925050602083015167ffffffffffffffff811115620001ee57600080fd5b620001fc8582860162000166565b9150509250929050565b6000604051905081810181811067ffffffffffffffff8211171562000230576200022f62000308565b5b8060405250919050565b600067ffffffffffffffff82111562000258576200025762000308565b5b601f19601f8301169050602081019050919050565b60005b838110156200028d57808201518184015260208101905062000270565b838111156200029d576000848401525b50505050565b60006002820490506001821680620002bc57607f821691505b60208210811415620002d357620002d2620002d9565b5b50919050565b7f4e487b7100000000000000000000000000000000000000000000000000000000600052602260045260246000fd5b7f4e487b7100000000000000000000000000000000000000000000000000000000600052604160045260246000fd5b611e0780620003476000396000f3fe6080604052600436106100915760003560e01c80636352211e116100595780636352211e1461015057806370a082311461018d578063a22cb465146101ca578063b88d4fde146101f3578063e985e9c51461020f57610091565b8063081812fc14610096578063095ea7b3146100d357806323b872dd146100ef57806342842e0e1461010b5780634e6ec24714610127575b600080fd5b3480156100a257600080fd5b506100bd60048036038101906100b89190611822565b61024c565b6040516100ca9190611aaa565b60405180910390f35b6100ed60048036038101906100e891906117e6565b610289565b005b610109600480360381019061010491906116e0565b6104ef565b005b610125600480360381019061012091906116e0565b6108b6565b005b34801561013357600080fd5b5061014e600480360381019061014991906117e6565b610c7d565b005b34801561015c57600080fd5b5061017760048036038101906101729190611822565b610ed4565b6040516101849190611aaa565b60405180910390f35b34801561019957600080fd5b506101b460048036038101906101af919061167b565b610f10565b6040516101c19190611bc0565b60405180910390f35b3480156101d657600080fd5b506101f160048036038101906101ec91906117aa565b610fc8565b005b61020d6004803603810190610208919061172f565b611134565b005b34801561021b57600080fd5b50610236600480360381019061023191906116a4565b6114fc565b6040516102439190611ac5565b60405180910390f35b60006002600083815260200190815260200160002060009054906101000a900473ffffffffffffffffffffffffffffffffffffffff169050919050565b600080600083815260200190815260200160002060009054906101000a900473ffffffffffffffffffffffffffffffffffffffff169050600060019050600073ffffffffffffffffffffffffffffffffffffffff168473ffffffffffffffffffffffffffffffffffffffff161415610336576040517f08c379a000000000000000000000000000000000000000000000000000000000815260040161032d90611ba0565b60405180910390fd5b8173ffffffffffffffffffffffffffffffffffffffff163373ffffffffffffffffffffffffffffffffffffffff161415806103fd5750600360008373ffffffffffffffffffffffffffffffffffffffff1673ffffffffffffffffffffffffffffffffffffffff16815260200190815260200160002060003373ffffffffffffffffffffffffffffffffffffffff1673ffffffffffffffffffffffffffffffffffffffff16815260200190815260200160002060009054906101000a900460ff161515811515145b61043c576040517f08c379a000000000000000000000000000000000000000000000000000000000815260040161043390611b60565b60405180910390fd5b836002600085815260200190815260200160002060006101000a81548173ffffffffffffffffffffffffffffffffffffffff021916908373ffffffffffffffffffffffffffffffffffffffff160217905550828473ffffffffffffffffffffffffffffffffffffffff168373ffffffffffffffffffffffffffffffffffffffff167f8c5be1e5ebec7d5bd14f71427d1e84f3dd0314c0f7b2291e5b200ac8c7c3b92560405160405180910390a450505050565b600360003373ffffffffffffffffffffffffffffffffffffffff1673ffffffffffffffffffffffffffffffffffffffff16815260200190815260200160002060008473ffffffffffffffffffffffffffffffffffffffff1673ffffffffffffffffffffffffffffffffffffffff16815260200190815260200160002060009054906101000a900460ff16806105e257506002600082815260200190815260200160002060009054906101000a900473ffffffffffffffffffffffffffffffffffffffff1673ffffffffffffffffffffffffffffffffffffffff163373ffffffffffffffffffffffffffffffffffffffff16145b8061064a575060008082815260200190815260200160002060009054906101000a900473ffffffffffffffffffffffffffffffffffffffff1673ffffffffffffffffffffffffffffffffffffffff163373ffffffffffffffffffffffffffffffffffffffff16145b610689576040517f08c379a000000000000000000000000000000000000000000000000000000000815260040161068090611b40565b60405180910390fd5b600080600083815260200190815260200160002060006101000a81548173ffffffffffffffffffffffffffffffffffffffff021916908373ffffffffffffffffffffffffffffffffffffffff16021790555061072d60018060008673ffffffffffffffffffffffffffffffffffffffff1673ffffffffffffffffffffffffffffffffffffffff168152602001908152602001600020546115a890919063ffffffff16565b600160008573ffffffffffffffffffffffffffffffffffffffff1673ffffffffffffffffffffffffffffffffffffffff168152602001908152602001600020819055506107c260018060008573ffffffffffffffffffffffffffffffffffffffff1673ffffffffffffffffffffffffffffffffffffffff168152602001908152602001600020546115be90919063ffffffff16565b600160008473ffffffffffffffffffffffffffffffffffffffff1673ffffffffffffffffffffffffffffffffffffffff168152602001908152602001600020819055508160008083815260200190815260200160002060006101000a81548173ffffffffffffffffffffffffffffffffffffffff021916908373ffffffffffffffffffffffffffffffffffffffff160217905550808273ffffffffffffffffffffffffffffffffffffffff168473ffffffffffffffffffffffffffffffffffffffff167fddf252ad1be2c89b69c2b068fc378daa952ba7f163c4a11628f55a4df523b3ef60405160405180910390a4505050565b600360003373ffffffffffffffffffffffffffffffffffffffff1673ffffffffffffffffffffffffffffffffffffffff16815260200190815260200160002060008473ffffffffffffffffffffffffffffffffffffffff1673ffffffffffffffffffffffffffffffffffffffff16815260200190815260200160002060009054906101000a900460ff16806109a957506002600082815260200190815260200160002060009054906101000a900473ffffffffffffffffffffffffffffffffffffffff1673ffffffffffffffffffffffffffffffffffffffff163373ffffffffffffffffffffffffffffffffffffffff16145b80610a11575060008082815260200190815260200160002060009054906101000a900473ffffffffffffffffffffffffffffffffffffffff1673ffffffffffffffffffffffffffffffffffffffff163373ffffffffffffffffffffffffffffffffffffffff16145b610a50576040517f08c379a0000000000000000000000000000000000000000000000000000000008152600401610a4790611b40565b60405180910390fd5b600080600083815260200190815260200160002060006101000a81548173ffffffffffffffffffffffffffffffffffffffff021916908373ffffffffffffffffffffffffffffffffffffffff160217905550610af460018060008673ffffffffffffffffffffffffffffffffffffffff1673ffffffffffffffffffffffffffffffffffffffff168152602001908152602001600020546115a890919063ffffffff16565b600160008573ffffffffffffffffffffffffffffffffffffffff1673ffffffffffffffffffffffffffffffffffffffff16815260200190815260200160002081905550610b8960018060008573ffffffffffffffffffffffffffffffffffffffff1673ffffffffffffffffffffffffffffffffffffffff168152602001908152602001600020546115be90919063ffffffff16565b600160008473ffffffffffffffffffffffffffffffffffffffff1673ffffffffffffffffffffffffffffffffffffffff168152602001908152602001600020819055508160008083815260200190815260200160002060006101000a81548173ffffffffffffffffffffffffffffffffffffffff021916908373ffffffffffffffffffffffffffffffffffffffff160217905550808273ffffffffffffffffffffffffffffffffffffffff168473ffffffffffffffffffffffffffffffffffffffff167fddf252ad1be2c89b69c2b068fc378daa952ba7f163c4a11628f55a4df523b3ef60405160405180910390a4505050565b600073ffffffffffffffffffffffffffffffffffffffff168273ffffffffffffffffffffffffffffffffffffffff161415610ced576040517f08c379a0000000000000000000000000000000000000000000000000000000008152600401610ce490611b80565b60405180910390fd5b600073ffffffffffffffffffffffffffffffffffffffff1660008083815260200190815260200160002060009054906101000a900473ffffffffffffffffffffffffffffffffffffffff1673ffffffffffffffffffffffffffffffffffffffff1614610d8e576040517f08c379a0000000000000000000000000000000000000000000000000000000008152600401610d8590611b20565b60405180910390fd5b8160008083815260200190815260200160002060006101000a81548173ffffffffffffffffffffffffffffffffffffffff021916908373ffffffffffffffffffffffffffffffffffffffff160217905550610e3160018060008573ffffffffffffffffffffffffffffffffffffffff1673ffffffffffffffffffffffffffffffffffffffff168152602001908152602001600020546115be90919063ffffffff16565b600160008473ffffffffffffffffffffffffffffffffffffffff1673ffffffffffffffffffffffffffffffffffffffff16815260200190815260200160002081905550808273ffffffffffffffffffffffffffffffffffffffff16600073ffffffffffffffffffffffffffffffffffffffff167fddf252ad1be2c89b69c2b068fc378daa952ba7f163c4a11628f55a4df523b3ef60405160405180910390a45050565b600080600083815260200190815260200160002060009054906101000a900473ffffffffffffffffffffffffffffffffffffffff169050919050565b60008073ffffffffffffffffffffffffffffffffffffffff168273ffffffffffffffffffffffffffffffffffffffff161415610f81576040517f08c379a0000000000000000000000000000000000000000000000000000000008152600401610f7890611b00565b60405180910390fd5b600160008373ffffffffffffffffffffffffffffffffffffffff1673ffffffffffffffffffffffffffffffffffffffff168152602001908152602001600020549050919050565b3373ffffffffffffffffffffffffffffffffffffffff168273ffffffffffffffffffffffffffffffffffffffff161415611037576040517f08c379a000000000000000000000000000000000000000000000000000000000815260040161102e90611ae0565b60405180910390fd5b80600360003373ffffffffffffffffffffffffffffffffffffffff1673ffffffffffffffffffffffffffffffffffffffff16815260200190815260200160002060008473ffffffffffffffffffffffffffffffffffffffff1673ffffffffffffffffffffffffffffffffffffffff16815260200190815260200160002060006101000a81548160ff0219169083151502179055508173ffffffffffffffffffffffffffffffffffffffff163373ffffffffffffffffffffffffffffffffffffffff167f17307eab39ab6107e8899845ad3d59bd9653f200f220920489ca2b5937696c31836040516111289190611ac5565b60405180910390a35050565b600360003373ffffffffffffffffffffffffffffffffffffffff1673ffffffffffffffffffffffffffffffffffffffff16815260200190815260200160002060008573ffffffffffffffffffffffffffffffffffffffff1673ffffffffffffffffffffffffffffffffffffffff16815260200190815260200160002060009054906101000a900460ff168061122757506002600083815260200190815260200160002060009054906101000a900473ffffffffffffffffffffffffffffffffffffffff1673ffffffffffffffffffffffffffffffffffffffff163373ffffffffffffffffffffffffffffffffffffffff16145b8061128f575060008083815260200190815260200160002060009054906101000a900473ffffffffffffffffffffffffffffffffffffffff1673ffffffffffffffffffffffffffffffffffffffff163373ffffffffffffffffffffffffffffffffffffffff16145b6112ce576040517f08c379a00000000000000000000000000000000000000000000000000000000081526004016112c590611b40565b60405180910390fd5b600080600084815260200190815260200160002060006101000a81548173ffffffffffffffffffffffffffffffffffffffff021916908373ffffffffffffffffffffffffffffffffffffffff16021790555061137260018060008773ffffffffffffffffffffffffffffffffffffffff1673ffffffffffffffffffffffffffffffffffffffff168152602001908152602001600020546115a890919063ffffffff16565b600160008673ffffffffffffffffffffffffffffffffffffffff1673ffffffffffffffffffffffffffffffffffffffff1681526020019081526020016000208190555061140760018060008673ffffffffffffffffffffffffffffffffffffffff1673ffffffffffffffffffffffffffffffffffffffff168152602001908152602001600020546115be90919063ffffffff16565b600160008573ffffffffffffffffffffffffffffffffffffffff1673ffffffffffffffffffffffffffffffffffffffff168152602001908152602001600020819055508260008084815260200190815260200160002060006101000a81548173ffffffffffffffffffffffffffffffffffffffff021916908373ffffffffffffffffffffffffffffffffffffffff160217905550818373ffffffffffffffffffffffffffffffffffffffff168573ffffffffffffffffffffffffffffffffffffffff167fddf252ad1be2c89b69c2b068fc378daa952ba7f163c4a11628f55a4df523b3ef60405160405180910390a450505050565b600060011515600360008573ffffffffffffffffffffffffffffffffffffffff1673ffffffffffffffffffffffffffffffffffffffff16815260200190815260200160002060008473ffffffffffffffffffffffffffffffffffffffff1673ffffffffffffffffffffffffffffffffffffffff16815260200190815260200160002060009054906101000a900460ff161515141561159d57600190506115a2565b600090505b92915050565b600081836115b69190611ca3565b905092915050565b600081836115cc9190611c4d565b905092915050565b60006115e76115e284611c0c565b611bdb565b9050828152602081018484840111156115ff57600080fd5b61160a848285611d1f565b509392505050565b60008135905061162181611d8c565b92915050565b60008135905061163681611da3565b92915050565b600082601f83011261164d57600080fd5b813561165d8482602086016115d4565b91505092915050565b60008135905061167581611dba565b92915050565b60006020828403121561168d57600080fd5b600061169b84828501611612565b91505092915050565b600080604083850312156116b757600080fd5b60006116c585828601611612565b92505060206116d685828601611612565b9150509250929050565b6000806000606084860312156116f557600080fd5b600061170386828701611612565b935050602061171486828701611612565b925050604061172586828701611666565b9150509250925092565b6000806000806080858703121561174557600080fd5b600061175387828801611612565b945050602061176487828801611612565b935050604061177587828801611666565b925050606085013567ffffffffffffffff81111561179257600080fd5b61179e8782880161163c565b91505092959194509250565b600080604083850312156117bd57600080fd5b60006117cb85828601611612565b92505060206117dc85828601611627565b9150509250929050565b600080604083850312156117f957600080fd5b600061180785828601611612565b925050602061181885828601611666565b9150509250929050565b60006020828403121561183457600080fd5b600061184284828501611666565b91505092915050565b61185481611cd7565b82525050565b61186381611ce9565b82525050565b6000611876602483611c3c565b91507f6d73672e73656e646572206973207468652063757272656e74204e4654206f7760008301527f6e657220000000000000000000000000000000000000000000000000000000006020830152604082019050919050565b60006118dc600f83611c3c565b91507f496e76616c6964206164647265737300000000000000000000000000000000006000830152602082019050919050565b600061191c601083611c3c565b91507f416c7265616479206578697374732e2e000000000000000000000000000000006000830152602082019050919050565b600061195c602983611c3c565b91507f7472616e736665722063616c6c6572206973206e6f74206f776e6572206e6f7260008301527f20617070726f76656400000000000000000000000000000000000000000000006020830152604082019050919050565b60006119c2603283611c3c565b91507f6d73672e73656e646572206973207468652063757272656e74204e4654206f7760008301527f6e657220206f72206f70657261746f72202100000000000000000000000000006020830152604082019050919050565b6000611a28600f83611c3c565b91507f496e76616c6964204164647265737300000000000000000000000000000000006000830152602082019050919050565b6000611a68601a83611c3c565b91507f496e76616c696420417070726f76616c204164647265737320210000000000006000830152602082019050919050565b611aa481611d15565b82525050565b6000602082019050611abf600083018461184b565b92915050565b6000602082019050611ada600083018461185a565b92915050565b60006020820190508181036000830152611af981611869565b9050919050565b60006020820190508181036000830152611b19816118cf565b9050919050565b60006020820190508181036000830152611b398161190f565b9050919050565b60006020820190508181036000830152611b598161194f565b9050919050565b60006020820190508181036000830152611b79816119b5565b9050919050565b60006020820190508181036000830152611b9981611a1b565b9050919050565b60006020820190508181036000830152611bb981611a5b565b9050919050565b6000602082019050611bd56000830184611a9b565b92915050565b6000604051905081810181811067ffffffffffffffff82111715611c0257611c01611d5d565b5b8060405250919050565b600067ffffffffffffffff821115611c2757611c26611d5d565b5b601f19601f8301169050602081019050919050565b600082825260208201905092915050565b6000611c5882611d15565b9150611c6383611d15565b9250827fffffffffffffffffffffffffffffffffffffffffffffffffffffffffffffffff03821115611c9857611c97611d2e565b5b828201905092915050565b6000611cae82611d15565b9150611cb983611d15565b925082821015611ccc57611ccb611d2e565b5b828203905092915050565b6000611ce282611cf5565b9050919050565b60008115159050919050565b600073ffffffffffffffffffffffffffffffffffffffff82169050919050565b6000819050919050565b82818337600083830152505050565b7f4e487b7100000000000000000000000000000000000000000000000000000000600052601160045260246000fd5b7f4e487b7100000000000000000000000000000000000000000000000000000000600052604160045260246000fd5b611d9581611cd7565b8114611da057600080fd5b50565b611dac81611ce9565b8114611db757600080fd5b50565b611dc381611d15565b8114611dce57600080fd5b5056fea26469706673582212207e1bc381214ffeff52966624551a1db2e19e1300655e91432bdec2cfca65c9b664736f6c63430008000033",
  "immutableReferences": {},
  "source": "\n// SPDX-License-Identifier: MIT\n\nimport './IERC721.sol';\nimport './SafeMath.sol';\n\npragma solidity >=0.4.22 <0.9.0;\n\ncontract MyNFT is IERC721{\n\n    using SafeMath for uint256;\n\n    struct Alltoken{\n        uint256 id;\n        string name;\n        string uri;\n\n    }    \n  //  mapping (address => Alltoken[]) internal ownedTokens;\n    mapping (uint256 => address) internal tokenOwner;\n    mapping (address => uint256) internal ownedTokensCount;\n    mapping (uint256 => address) internal _tokenapprove;\n    mapping (address => mapping (address => bool)) private _operatorApprovals;\n\n\n    string private _name;\n    string private _symbol;\n\n    constructor(string memory name, string memory symbol) {\n        _name=name;\n        _symbol=symbol;\n    }\n\n\n    function balanceOf(address _owner) external virtual override view returns(uint256){\n        require(_owner!=address(0),\"Invalid address\");\n        return ownedTokensCount[_owner];\n    }\n    function ownerOf(uint256 _tokenId) external virtual override view returns(address){\n        return tokenOwner[_tokenId];\n    }\n    function approve(address _approved, uint _tokenId) external virtual override payable{\n        address owner = tokenOwner[_tokenId];\n        bool check=true;\n        require(_approved!=address(0),\"Invalid Approval Address !\");\n        require(msg.sender!=owner || check == _operatorApprovals[owner][msg.sender],\"msg.sender is the current NFT owner  or operator !\");\n        _tokenapprove[_tokenId]=_approved;\n        emit Approval(owner, _approved, _tokenId);\n    }\n    function setApprovalForAll(address _operator, bool _approved) external virtual override{\n        require(_operator!=msg.sender, \"msg.sender is the current NFT owner \");\n        _operatorApprovals[msg.sender][_operator]=_approved;\n        emit ApprovalForAll(msg.sender, _operator, _approved);\n    }\n    function getApproved(uint256 _tokenId) external virtual override view returns (address){\n        return _tokenapprove[_tokenId];\n    }\n    function isApprovedForAll(address _owner, address _operator) external override view returns (bool){\n        if(_operatorApprovals[_owner][_operator]==true)\n        {\n            return true;\n        }\n        else{ return false;}\n    }\n    function safeTransferFrom(address _from,address _to, uint256 _tokenId, bytes memory _data) external virtual override payable {\n        require( _operatorApprovals[msg.sender][_from] || \n        msg.sender == _tokenapprove[_tokenId] || \n        msg.sender == tokenOwner[_tokenId],\n        \"transfer caller is not owner nor approved\");\n\n        tokenOwner[_tokenId]=address(0);\n        ownedTokensCount[_from]=ownedTokensCount[_from].sub(1);\n        ownedTokensCount[_to]= ownedTokensCount[_to].add(1);\n        tokenOwner[_tokenId]=_to;\n        emit Transfer(_from, _to, _tokenId);\n     \n    }\n\n        function safeTransferFrom(address _from, address _to, uint256 _tokenId) external virtual override payable{\n        require( _operatorApprovals[msg.sender][_from] || \n        msg.sender == _tokenapprove[_tokenId] || \n        msg.sender == tokenOwner[_tokenId],\n        \"transfer caller is not owner nor approved\");\n\n        tokenOwner[_tokenId]=address(0);\n        ownedTokensCount[_from]=ownedTokensCount[_from].sub(1);\n        ownedTokensCount[_to]= ownedTokensCount[_to].add(1);\n        tokenOwner[_tokenId]=_to;\n        emit Transfer(_from, _to, _tokenId);\n        }\n\n        function transferFrom(address _from, address _to, uint256 _tokenId) external virtual override payable{\n        require( _operatorApprovals[msg.sender][_from] || \n        msg.sender == _tokenapprove[_tokenId] || \n        msg.sender == tokenOwner[_tokenId],\n        \"transfer caller is not owner nor approved\");\n\n        tokenOwner[_tokenId]=address(0);\n        ownedTokensCount[_from]=ownedTokensCount[_from].sub(1);\n        ownedTokensCount[_to]= ownedTokensCount[_to].add(1);\n        tokenOwner[_tokenId]=_to;\n        emit Transfer(_from, _to, _tokenId);\n        }\n\n\n    function _mint(address to, uint256 tokenId) external {\n        require(to!=address(0), \"Invalid Address\");\n        require(tokenOwner[tokenId]==address(0),\"Already exists..\");\n        tokenOwner[tokenId]=to;\n        ownedTokensCount[to]=ownedTokensCount[to].add(1);\n        emit Transfer(address(0), to, tokenId);\n    }\n\n    \n}\n\n   // Alltoken _at = ownedTokens[_from];\n        // bool temp=false;\n        // Alltoken foundToken = new Alltoken(0,\"\",\"\");\n        // for(uint256 i=0;i<_at.length;i++){\n        //     if(_at[i].id == _tokenID){\n        //         delete _at[i].id;\n        //         i=_at.length;\n        //         foundToken = _at[i];\n        //     }\n        // }\n        // revert(foundToken.id !=0);\n        // ownedTokens[_to].push(foundToken);\n",
  "sourcePath": "/home/farhan_ali/Desktop/MyNFT/contracts/MyNFT.sol",
  "compiler": {
    "name": "solc",
    "version": "0.8.0+commit.c7dfd78e.Emscripten.clang"
  },
  "schemaVersion": "3.3.4",
  "updatedAt": "2021-02-19T18:28:37.911Z",
  "networkType": "ethereum",
  "devdoc": {
    "kind": "dev",
    "methods": {
      "approve(address,uint256)": {
        "details": "The zero address indicates there is no approved address.  Throws unless `msg.sender` is the current NFT owner, or an authorized  operator of the current owner.",
        "params": {
          "_approved": "The new approved NFT controller",
          "_tokenId": "The NFT to approve"
        }
      },
      "balanceOf(address)": {
        "details": "NFTs assigned to the zero address are considered invalid, and this  function throws for queries about the zero address.",
        "params": {
          "_owner": "An address for whom to query the balance"
        },
        "returns": {
          "_0": "The number of NFTs owned by `_owner`, possibly zero"
        }
      },
      "getApproved(uint256)": {
        "details": "Throws if `_tokenId` is not a valid NFT.",
        "params": {
          "_tokenId": "The NFT to find the approved address for"
        },
        "returns": {
          "_0": "The approved address for this NFT, or the zero address if there is none"
        }
      },
      "isApprovedForAll(address,address)": {
        "params": {
          "_operator": "The address that acts on behalf of the owner",
          "_owner": "The address that owns the NFTs"
        },
        "returns": {
          "_0": "True if `_operator` is an approved operator for `_owner`, false otherwise"
        }
      },
      "ownerOf(uint256)": {
        "details": "NFTs assigned to zero address are considered invalid, and queries  about them do throw.",
        "params": {
          "_tokenId": "The identifier for an NFT"
        },
        "returns": {
          "_0": "The address of the owner of the NFT"
        }
      },
      "safeTransferFrom(address,address,uint256)": {
        "details": "This works identically to the other function with an extra data parameter,  except this function just sets data to \"\".",
        "params": {
          "_from": "The current owner of the NFT",
          "_to": "The new owner",
          "_tokenId": "The NFT to transfer"
        }
      },
      "setApprovalForAll(address,bool)": {
        "details": "Emits the ApprovalForAll event. The contract MUST allow  multiple operators per owner.",
        "params": {
          "_approved": "True if the operator is approved, false to revoke approval",
          "_operator": "Address to add to the set of authorized operators"
        }
      },
      "transferFrom(address,address,uint256)": {
        "details": "Throws unless `msg.sender` is the current owner, an authorized  operator, or the approved address for this NFT. Throws if `_from` is  not the current owner. Throws if `_to` is the zero address. Throws if  `_tokenId` is not a valid NFT.",
        "params": {
          "_from": "The current owner of the NFT",
          "_to": "The new owner",
          "_tokenId": "The NFT to transfer"
        }
      }
    },
    "version": 1
  },
  "userdoc": {
    "kind": "user",
    "methods": {
      "approve(address,uint256)": {
        "notice": "Change or reaffirm the approved address for an NFT"
      },
      "balanceOf(address)": {
        "notice": "Count all NFTs assigned to an owner"
      },
      "getApproved(uint256)": {
        "notice": "Get the approved address for a single NFT"
      },
      "isApprovedForAll(address,address)": {
        "notice": "Query if an address is an authorized operator for another address"
      },
      "ownerOf(uint256)": {
        "notice": "Find the owner of an NFT"
      },
      "safeTransferFrom(address,address,uint256)": {
        "notice": "Transfers the ownership of an NFT from one address to another address"
      },
      "setApprovalForAll(address,bool)": {
        "notice": "Enable or disable approval for a third party (\"operator\") to manage  all of `msg.sender`'s assets"
      },
      "transferFrom(address,address,uint256)": {
        "notice": "Transfer ownership of an NFT -- THE CALLER IS RESPONSIBLE  TO CONFIRM THAT `_to` IS CAPABLE OF RECEIVING NFTS OR ELSE  THEY MAY BE PERMANENTLY LOST"
      }
    },
    "version": 1
  }
}